{
  "contractName": "Staking",
  "abi": [
    {
      "inputs": [
        {
          "internalType": "address",
          "name": "_stakingToken",
          "type": "address"
        },
        {
          "internalType": "address",
          "name": "_rewardsToken",
          "type": "address"
        }
      ],
      "stateMutability": "nonpayable",
      "type": "constructor"
    },
    {
      "anonymous": false,
      "inputs": [
        {
          "indexed": false,
          "internalType": "address",
          "name": "account",
          "type": "address"
        },
        {
          "indexed": false,
          "internalType": "uint256",
          "name": "amount",
          "type": "uint256"
        }
      ],
      "name": "ClaimReward",
      "type": "event"
    },
    {
      "anonymous": false,
      "inputs": [
        {
          "indexed": true,
          "internalType": "address",
          "name": "previousOwner",
          "type": "address"
        },
        {
          "indexed": true,
          "internalType": "address",
          "name": "newOwner",
          "type": "address"
        }
      ],
      "name": "OwnershipTransferred",
      "type": "event"
    },
    {
      "anonymous": false,
      "inputs": [
        {
          "indexed": false,
          "internalType": "address",
          "name": "account",
          "type": "address"
        },
        {
          "indexed": false,
          "internalType": "uint256",
          "name": "rewards",
          "type": "uint256"
        },
        {
          "indexed": false,
          "internalType": "uint256",
          "name": "rewardPerTokenStored",
          "type": "uint256"
        },
        {
          "indexed": false,
          "internalType": "uint256",
          "name": "lastUpdateTime",
          "type": "uint256"
        }
      ],
      "name": "RewardUpdated",
      "type": "event"
    },
    {
      "anonymous": false,
      "inputs": [
        {
          "indexed": false,
          "internalType": "address",
          "name": "account",
          "type": "address"
        },
        {
          "indexed": false,
          "internalType": "uint256",
          "name": "amount",
          "type": "uint256"
        },
        {
          "indexed": false,
          "internalType": "uint256",
          "name": "amountSoFar",
          "type": "uint256"
        }
      ],
      "name": "Stake",
      "type": "event"
    },
    {
      "anonymous": false,
      "inputs": [
        {
          "indexed": false,
          "internalType": "address",
          "name": "account",
          "type": "address"
        },
        {
          "indexed": false,
          "internalType": "uint256",
          "name": "amount",
          "type": "uint256"
        },
        {
          "indexed": false,
          "internalType": "uint256",
          "name": "amountRemaining",
          "type": "uint256"
        }
      ],
      "name": "Withdraw",
      "type": "event"
    },
    {
      "inputs": [],
      "name": "lastUpdateTime",
      "outputs": [
        {
          "internalType": "uint256",
          "name": "",
          "type": "uint256"
        }
      ],
      "stateMutability": "view",
      "type": "function",
      "constant": true
    },
    {
      "inputs": [],
      "name": "owner",
      "outputs": [
        {
          "internalType": "address",
          "name": "",
          "type": "address"
        }
      ],
      "stateMutability": "view",
      "type": "function",
      "constant": true
    },
    {
      "inputs": [],
      "name": "renounceOwnership",
      "outputs": [],
      "stateMutability": "nonpayable",
      "type": "function"
    },
    {
      "inputs": [],
      "name": "rewardPerTokenStored",
      "outputs": [
        {
          "internalType": "uint256",
          "name": "",
          "type": "uint256"
        }
      ],
      "stateMutability": "view",
      "type": "function",
      "constant": true
    },
    {
      "inputs": [],
      "name": "rewardRate",
      "outputs": [
        {
          "internalType": "uint256",
          "name": "",
          "type": "uint256"
        }
      ],
      "stateMutability": "view",
      "type": "function",
      "constant": true
    },
    {
      "inputs": [
        {
          "internalType": "address",
          "name": "",
          "type": "address"
        }
      ],
      "name": "rewards",
      "outputs": [
        {
          "internalType": "uint256",
          "name": "",
          "type": "uint256"
        }
      ],
      "stateMutability": "view",
      "type": "function",
      "constant": true
    },
    {
      "inputs": [],
      "name": "rewardsToken",
      "outputs": [
        {
          "internalType": "contract IERC20",
          "name": "",
          "type": "address"
        }
      ],
      "stateMutability": "view",
      "type": "function",
      "constant": true
    },
    {
      "inputs": [],
      "name": "stakingToken",
      "outputs": [
        {
          "internalType": "contract IERC20",
          "name": "",
          "type": "address"
        }
      ],
      "stateMutability": "view",
      "type": "function",
      "constant": true
    },
    {
      "inputs": [
        {
          "internalType": "address",
          "name": "newOwner",
          "type": "address"
        }
      ],
      "name": "transferOwnership",
      "outputs": [],
      "stateMutability": "nonpayable",
      "type": "function"
    },
    {
      "inputs": [
        {
          "internalType": "address",
          "name": "",
          "type": "address"
        }
      ],
      "name": "userRewardPerTokenPaid",
      "outputs": [
        {
          "internalType": "uint256",
          "name": "",
          "type": "uint256"
        }
      ],
      "stateMutability": "view",
      "type": "function",
      "constant": true
    },
    {
      "inputs": [],
      "name": "withdrawFee",
      "outputs": [
        {
          "internalType": "uint256",
          "name": "",
          "type": "uint256"
        }
      ],
      "stateMutability": "view",
      "type": "function",
      "constant": true
    },
    {
      "inputs": [],
      "name": "withdrawFeeStatus",
      "outputs": [
        {
          "internalType": "bool",
          "name": "",
          "type": "bool"
        }
      ],
      "stateMutability": "view",
      "type": "function",
      "constant": true
    },
    {
      "inputs": [
        {
          "internalType": "uint256",
          "name": "_rewardRate",
          "type": "uint256"
        }
      ],
      "name": "setRewardRate",
      "outputs": [],
      "stateMutability": "nonpayable",
      "type": "function"
    },
    {
      "inputs": [
        {
          "internalType": "uint256",
          "name": "_withdrawFee",
          "type": "uint256"
        }
      ],
      "name": "setWithdrawFee",
      "outputs": [],
      "stateMutability": "nonpayable",
      "type": "function"
    },
    {
      "inputs": [
        {
          "internalType": "bool",
          "name": "_withdrawFeeStatus",
          "type": "bool"
        }
      ],
      "name": "setWithdrawFeeStatus",
      "outputs": [],
      "stateMutability": "nonpayable",
      "type": "function"
    },
    {
      "inputs": [
        {
          "internalType": "address",
          "name": "_owner",
          "type": "address"
        }
      ],
      "name": "balanceOf",
      "outputs": [
        {
          "internalType": "uint256",
          "name": "_balance",
          "type": "uint256"
        }
      ],
      "stateMutability": "view",
      "type": "function",
      "constant": true
    },
    {
      "inputs": [
        {
          "internalType": "address",
          "name": "_owner",
          "type": "address"
        }
      ],
      "name": "rewardsOf",
      "outputs": [
        {
          "internalType": "uint256",
          "name": "_balance",
          "type": "uint256"
        }
      ],
      "stateMutability": "view",
      "type": "function",
      "constant": true
    },
    {
      "inputs": [],
      "name": "rewardPerToken",
      "outputs": [
        {
          "internalType": "uint256",
          "name": "",
          "type": "uint256"
        }
      ],
      "stateMutability": "view",
      "type": "function",
      "constant": true
    },
    {
      "inputs": [
        {
          "internalType": "address",
          "name": "account",
          "type": "address"
        }
      ],
      "name": "earned",
      "outputs": [
        {
          "internalType": "uint256",
          "name": "",
          "type": "uint256"
        }
      ],
      "stateMutability": "view",
      "type": "function",
      "constant": true
    },
    {
      "inputs": [
        {
          "internalType": "uint256",
          "name": "_amount",
          "type": "uint256"
        }
      ],
      "name": "stake",
      "outputs": [],
      "stateMutability": "nonpayable",
      "type": "function"
    },
    {
      "inputs": [
        {
          "internalType": "uint256",
          "name": "_amount",
          "type": "uint256"
        }
      ],
      "name": "withdraw",
      "outputs": [],
      "stateMutability": "nonpayable",
      "type": "function"
    },
    {
      "inputs": [],
      "name": "claimReward",
      "outputs": [],
      "stateMutability": "nonpayable",
      "type": "function"
    }
  ],
  "bytecode": "0x60806040526064600355600a6004556001600560006101000a81548160ff0219169083151502179055503480156200003657600080fd5b5060405162001fb338038062001fb383398181016040528101906200005c9190620001e9565b6200007c620000706200010660201b60201c565b6200010e60201b60201c565b81600260006101000a81548173ffffffffffffffffffffffffffffffffffffffff021916908373ffffffffffffffffffffffffffffffffffffffff16021790555080600160006101000a81548173ffffffffffffffffffffffffffffffffffffffff021916908373ffffffffffffffffffffffffffffffffffffffff160217905550505062000278565b600033905090565b60008060009054906101000a900473ffffffffffffffffffffffffffffffffffffffff169050816000806101000a81548173ffffffffffffffffffffffffffffffffffffffff021916908373ffffffffffffffffffffffffffffffffffffffff1602179055508173ffffffffffffffffffffffffffffffffffffffff168173ffffffffffffffffffffffffffffffffffffffff167f8be0079c531659141344cd1fd0a4f28419497f9722a3daafe3b4186f6b6457e060405160405180910390a35050565b600081519050620001e3816200025e565b92915050565b60008060408385031215620001fd57600080fd5b60006200020d85828601620001d2565b92505060206200022085828601620001d2565b9150509250929050565b600062000237826200023e565b9050919050565b600073ffffffffffffffffffffffffffffffffffffffff82169050919050565b62000269816200022a565b81146200027557600080fd5b50565b611d2b80620002886000396000f3fe608060405234801561001057600080fd5b50600436106101415760003560e01c80638da5cb5b116100b8578063c8f33c911161007c578063c8f33c911461034e578063cd3daf9d1461036c578063d1af0c7d1461038a578063df136d65146103a8578063e941fa78146103c6578063f2fde38b146103e457610141565b80638da5cb5b146102d25780639e447fc6146102f0578063a694fc3a1461030c578063b6ac642a14610328578063b88a802f1461034457610141565b80634becf2bc1161010a5780634becf2bc1461020e57806370a082311461022c578063715018a61461025c57806372f702f3146102665780637b0a47ee146102845780638b876347146102a257610141565b80628cc262146101465780630700037d146101765780632e1a7d4d146101a6578063479ba7ae146101c257806349148fb3146101f2575b600080fd5b610160600480360381019061015b9190611669565b610400565b60405161016d9190611aa5565b60405180910390f35b610190600480360381019061018b9190611669565b61051e565b60405161019d9190611aa5565b60405180910390f35b6101c060048036038101906101bb91906116e4565b610536565b005b6101dc60048036038101906101d79190611669565b61094e565b6040516101e99190611aa5565b60405180910390f35b61020c60048036038101906102079190611692565b610997565b005b610216610a30565b60405161022391906119cf565b60405180910390f35b61024660048036038101906102419190611669565b610a43565b6040516102539190611aa5565b60405180910390f35b610264610a8c565b005b61026e610b14565b60405161027b91906119ea565b60405180910390f35b61028c610b3a565b6040516102999190611aa5565b60405180910390f35b6102bc60048036038101906102b79190611669565b610b40565b6040516102c99190611aa5565b60405180910390f35b6102da610b58565b6040516102e791906118d8565b60405180910390f35b61030a600480360381019061030591906116e4565b610b81565b005b610326600480360381019061032191906116e4565b610c07565b005b610342600480360381019061033d91906116e4565b610ffc565b005b61034c611082565b005b610356611320565b6040516103639190611aa5565b60405180910390f35b610374611326565b6040516103819190611aa5565b60405180910390f35b6103926113b2565b60405161039f91906119ea565b60405180910390f35b6103b06113d8565b6040516103bd9190611aa5565b60405180910390f35b6103ce6113de565b6040516103db9190611aa5565b60405180910390f35b6103fe60048036038101906103f99190611669565b6113e4565b005b6000610517600960008473ffffffffffffffffffffffffffffffffffffffff1673ffffffffffffffffffffffffffffffffffffffff16815260200190815260200160002054610509670de0b6b3a76400006104fb6104ad600860008973ffffffffffffffffffffffffffffffffffffffff1673ffffffffffffffffffffffffffffffffffffffff1681526020019081526020016000205461049f611326565b6114dc90919063ffffffff16565b600b60008973ffffffffffffffffffffffffffffffffffffffff1673ffffffffffffffffffffffffffffffffffffffff168152602001908152602001600020546114f290919063ffffffff16565b61150890919063ffffffff16565b61151e90919063ffffffff16565b9050919050565b60096020528060005260406000206000915090505481565b3361053f611326565b6007819055504260068190555061055581610400565b600960008373ffffffffffffffffffffffffffffffffffffffff1673ffffffffffffffffffffffffffffffffffffffff16815260200190815260200160002081905550600754600860008373ffffffffffffffffffffffffffffffffffffffff1673ffffffffffffffffffffffffffffffffffffffff168152602001908152602001600020819055507f2154de89d5bc468103866cc236e52e0405df9bd8cf3888bb159579a365f51a0881600960008473ffffffffffffffffffffffffffffffffffffffff1673ffffffffffffffffffffffffffffffffffffffff16815260200190815260200160002054600754600654604051610656949392919061198a565b60405180910390a181600b60003373ffffffffffffffffffffffffffffffffffffffff1673ffffffffffffffffffffffffffffffffffffffff1681526020019081526020016000205410156106e0576040517f08c379a00000000000000000000000000000000000000000000000000000000081526004016106d790611a05565b60405180910390fd5b600560009054906101000a900460ff161561072c57610729606461071b600454606461070c9190611bb2565b856114f290919063ffffffff16565b61150890919063ffffffff16565b91505b6000600260009054906101000a900473ffffffffffffffffffffffffffffffffffffffff1673ffffffffffffffffffffffffffffffffffffffff1663a9059cbb33856040518363ffffffff1660e01b815260040161078b92919061192a565b602060405180830381600087803b1580156107a557600080fd5b505af11580156107b9573d6000803e3d6000fd5b505050506040513d601f19601f820116820180604052508101906107dd91906116bb565b90508061081f576040517f08c379a000000000000000000000000000000000000000000000000000000000815260040161081690611a65565b60405180910390fd5b61083483600a546114dc90919063ffffffff16565b600a8190555061088c83600b60003373ffffffffffffffffffffffffffffffffffffffff1673ffffffffffffffffffffffffffffffffffffffff168152602001908152602001600020546114dc90919063ffffffff16565b600b60003373ffffffffffffffffffffffffffffffffffffffff1673ffffffffffffffffffffffffffffffffffffffff168152602001908152602001600020819055507ff279e6a1f5e320cca91135676d9cb6e44ca8a08c0b88342bcdb1144f6511b5683384600b60003373ffffffffffffffffffffffffffffffffffffffff1673ffffffffffffffffffffffffffffffffffffffff1681526020019081526020016000205460405161094193929190611953565b60405180910390a1505050565b6000600960008373ffffffffffffffffffffffffffffffffffffffff1673ffffffffffffffffffffffffffffffffffffffff168152602001908152602001600020549050919050565b61099f611534565b73ffffffffffffffffffffffffffffffffffffffff166109bd610b58565b73ffffffffffffffffffffffffffffffffffffffff1614610a13576040517f08c379a0000000000000000000000000000000000000000000000000000000008152600401610a0a90611a45565b60405180910390fd5b80600560006101000a81548160ff02191690831515021790555050565b600560009054906101000a900460ff1681565b6000600b60008373ffffffffffffffffffffffffffffffffffffffff1673ffffffffffffffffffffffffffffffffffffffff168152602001908152602001600020549050919050565b610a94611534565b73ffffffffffffffffffffffffffffffffffffffff16610ab2610b58565b73ffffffffffffffffffffffffffffffffffffffff1614610b08576040517f08c379a0000000000000000000000000000000000000000000000000000000008152600401610aff90611a45565b60405180910390fd5b610b12600061153c565b565b600260009054906101000a900473ffffffffffffffffffffffffffffffffffffffff1681565b60035481565b60086020528060005260406000206000915090505481565b60008060009054906101000a900473ffffffffffffffffffffffffffffffffffffffff16905090565b610b89611534565b73ffffffffffffffffffffffffffffffffffffffff16610ba7610b58565b73ffffffffffffffffffffffffffffffffffffffff1614610bfd576040517f08c379a0000000000000000000000000000000000000000000000000000000008152600401610bf490611a45565b60405180910390fd5b8060038190555050565b33610c10611326565b60078190555042600681905550610c2681610400565b600960008373ffffffffffffffffffffffffffffffffffffffff1673ffffffffffffffffffffffffffffffffffffffff16815260200190815260200160002081905550600754600860008373ffffffffffffffffffffffffffffffffffffffff1673ffffffffffffffffffffffffffffffffffffffff168152602001908152602001600020819055507f2154de89d5bc468103866cc236e52e0405df9bd8cf3888bb159579a365f51a0881600960008473ffffffffffffffffffffffffffffffffffffffff1673ffffffffffffffffffffffffffffffffffffffff16815260200190815260200160002054600754600654604051610d27949392919061198a565b60405180910390a181600260009054906101000a900473ffffffffffffffffffffffffffffffffffffffff1673ffffffffffffffffffffffffffffffffffffffff166370a08231336040518263ffffffff1660e01b8152600401610d8b91906118d8565b60206040518083038186803b158015610da357600080fd5b505afa158015610db7573d6000803e3d6000fd5b505050506040513d601f19601f82011682018060405250810190610ddb919061170d565b1015610e1c576040517f08c379a0000000000000000000000000000000000000000000000000000000008152600401610e1390611a85565b60405180910390fd5b610e3182600a5461151e90919063ffffffff16565b600a81905550610e8982600b60003373ffffffffffffffffffffffffffffffffffffffff1673ffffffffffffffffffffffffffffffffffffffff1681526020019081526020016000205461151e90919063ffffffff16565b600b60003373ffffffffffffffffffffffffffffffffffffffff1673ffffffffffffffffffffffffffffffffffffffff16815260200190815260200160002081905550600260009054906101000a900473ffffffffffffffffffffffffffffffffffffffff1673ffffffffffffffffffffffffffffffffffffffff166323b872dd3330856040518463ffffffff1660e01b8152600401610f2b939291906118f3565b602060405180830381600087803b158015610f4557600080fd5b505af1158015610f59573d6000803e3d6000fd5b505050506040513d601f19601f82011682018060405250810190610f7d91906116bb565b507f5af417134f72a9d41143ace85b0a26dce6f550f894f2cbc1eeee8810603d91b63383600b60003373ffffffffffffffffffffffffffffffffffffffff1673ffffffffffffffffffffffffffffffffffffffff16815260200190815260200160002054604051610ff093929190611953565b60405180910390a15050565b611004611534565b73ffffffffffffffffffffffffffffffffffffffff16611022610b58565b73ffffffffffffffffffffffffffffffffffffffff1614611078576040517f08c379a000000000000000000000000000000000000000000000000000000000815260040161106f90611a45565b60405180910390fd5b8060048190555050565b3361108b611326565b600781905550426006819055506110a181610400565b600960008373ffffffffffffffffffffffffffffffffffffffff1673ffffffffffffffffffffffffffffffffffffffff16815260200190815260200160002081905550600754600860008373ffffffffffffffffffffffffffffffffffffffff1673ffffffffffffffffffffffffffffffffffffffff168152602001908152602001600020819055507f2154de89d5bc468103866cc236e52e0405df9bd8cf3888bb159579a365f51a0881600960008473ffffffffffffffffffffffffffffffffffffffff1673ffffffffffffffffffffffffffffffffffffffff168152602001908152602001600020546007546006546040516111a2949392919061198a565b60405180910390a16000600960003373ffffffffffffffffffffffffffffffffffffffff1673ffffffffffffffffffffffffffffffffffffffff1681526020019081526020016000205490506000600960003373ffffffffffffffffffffffffffffffffffffffff1673ffffffffffffffffffffffffffffffffffffffff16815260200190815260200160002081905550600160009054906101000a900473ffffffffffffffffffffffffffffffffffffffff1673ffffffffffffffffffffffffffffffffffffffff1663a9059cbb33836040518363ffffffff1660e01b815260040161129092919061192a565b602060405180830381600087803b1580156112aa57600080fd5b505af11580156112be573d6000803e3d6000fd5b505050506040513d601f19601f820116820180604052508101906112e291906116bb565b507fba8de60c3403ec381d1d484652ea1980e3c3e56359195c92525bff4ce47ad98e338260405161131492919061192a565b60405180910390a15050565b60065481565b600080600a54141561133b57600090506113af565b60006113a8611397600a54611389670de0b6b3a764000061137b60035461136d600654426114dc90919063ffffffff16565b6114f290919063ffffffff16565b6114f290919063ffffffff16565b61150890919063ffffffff16565b60075461151e90919063ffffffff16565b9050809150505b90565b600160009054906101000a900473ffffffffffffffffffffffffffffffffffffffff1681565b60075481565b60045481565b6113ec611534565b73ffffffffffffffffffffffffffffffffffffffff1661140a610b58565b73ffffffffffffffffffffffffffffffffffffffff1614611460576040517f08c379a000000000000000000000000000000000000000000000000000000000815260040161145790611a45565b60405180910390fd5b600073ffffffffffffffffffffffffffffffffffffffff168173ffffffffffffffffffffffffffffffffffffffff1614156114d0576040517f08c379a00000000000000000000000000000000000000000000000000000000081526004016114c790611a25565b60405180910390fd5b6114d98161153c565b50565b600081836114ea9190611bb2565b905092915050565b600081836115009190611b58565b905092915050565b600081836115169190611b27565b905092915050565b6000818361152c9190611ad1565b905092915050565b600033905090565b60008060009054906101000a900473ffffffffffffffffffffffffffffffffffffffff169050816000806101000a81548173ffffffffffffffffffffffffffffffffffffffff021916908373ffffffffffffffffffffffffffffffffffffffff1602179055508173ffffffffffffffffffffffffffffffffffffffff168173ffffffffffffffffffffffffffffffffffffffff167f8be0079c531659141344cd1fd0a4f28419497f9722a3daafe3b4186f6b6457e060405160405180910390a35050565b60008135905061160f81611cb0565b92915050565b60008135905061162481611cc7565b92915050565b60008151905061163981611cc7565b92915050565b60008135905061164e81611cde565b92915050565b60008151905061166381611cde565b92915050565b60006020828403121561167b57600080fd5b600061168984828501611600565b91505092915050565b6000602082840312156116a457600080fd5b60006116b284828501611615565b91505092915050565b6000602082840312156116cd57600080fd5b60006116db8482850161162a565b91505092915050565b6000602082840312156116f657600080fd5b60006117048482850161163f565b91505092915050565b60006020828403121561171f57600080fd5b600061172d84828501611654565b91505092915050565b61173f81611be6565b82525050565b61174e81611bf8565b82525050565b61175d81611c2e565b82525050565b6000611770600e83611ac0565b91507f4f76657220746865206c696d69740000000000000000000000000000000000006000830152602082019050919050565b60006117b0602683611ac0565b91507f4f776e61626c653a206e6577206f776e657220697320746865207a65726f206160008301527f64647265737300000000000000000000000000000000000000000000000000006020830152604082019050919050565b6000611816602083611ac0565b91507f4f776e61626c653a2063616c6c6572206973206e6f7420746865206f776e65726000830152602082019050919050565b6000611856601c83611ac0565b91507f5374616b696e67746f6b656e207472616e73666572206661696c6564000000006000830152602082019050919050565b6000611896601383611ac0565b91507f496e73756666696369656e7420616d6f756e74000000000000000000000000006000830152602082019050919050565b6118d281611c24565b82525050565b60006020820190506118ed6000830184611736565b92915050565b60006060820190506119086000830186611736565b6119156020830185611736565b61192260408301846118c9565b949350505050565b600060408201905061193f6000830185611736565b61194c60208301846118c9565b9392505050565b60006060820190506119686000830186611736565b61197560208301856118c9565b61198260408301846118c9565b949350505050565b600060808201905061199f6000830187611736565b6119ac60208301866118c9565b6119b960408301856118c9565b6119c660608301846118c9565b95945050505050565b60006020820190506119e46000830184611745565b92915050565b60006020820190506119ff6000830184611754565b92915050565b60006020820190508181036000830152611a1e81611763565b9050919050565b60006020820190508181036000830152611a3e816117a3565b9050919050565b60006020820190508181036000830152611a5e81611809565b9050919050565b60006020820190508181036000830152611a7e81611849565b9050919050565b60006020820190508181036000830152611a9e81611889565b9050919050565b6000602082019050611aba60008301846118c9565b92915050565b600082825260208201905092915050565b6000611adc82611c24565b9150611ae783611c24565b9250827fffffffffffffffffffffffffffffffffffffffffffffffffffffffffffffffff03821115611b1c57611b1b611c52565b5b828201905092915050565b6000611b3282611c24565b9150611b3d83611c24565b925082611b4d57611b4c611c81565b5b828204905092915050565b6000611b6382611c24565b9150611b6e83611c24565b9250817fffffffffffffffffffffffffffffffffffffffffffffffffffffffffffffffff0483118215151615611ba757611ba6611c52565b5b828202905092915050565b6000611bbd82611c24565b9150611bc883611c24565b925082821015611bdb57611bda611c52565b5b828203905092915050565b6000611bf182611c04565b9050919050565b60008115159050919050565b600073ffffffffffffffffffffffffffffffffffffffff82169050919050565b6000819050919050565b6000611c3982611c40565b9050919050565b6000611c4b82611c04565b9050919050565b7f4e487b7100000000000000000000000000000000000000000000000000000000600052601160045260246000fd5b7f4e487b7100000000000000000000000000000000000000000000000000000000600052601260045260246000fd5b611cb981611be6565b8114611cc457600080fd5b50565b611cd081611bf8565b8114611cdb57600080fd5b50565b611ce781611c24565b8114611cf257600080fd5b5056fea2646970667358221220a0464aca26e1fd07600c57afe95223b044e2ab86eb7886cfa1988ce9b54d0e1764736f6c63430008000033",
  "immutableReferences": {},
  "source": "// SPDX-License-Identifier: MIT\r\npragma solidity ^0.8.0;\r\n\r\nimport \"@openzeppelin/contracts/token/ERC20/IERC20.sol\";\r\nimport \"@openzeppelin/contracts/access/Ownable.sol\";\r\nimport '@openzeppelin/contracts/utils/math/SafeMath.sol';\r\n\r\ncontract Staking is Ownable {\r\n    using SafeMath for uint256;\r\n\r\n    IERC20 public rewardsToken;\r\n    IERC20 public stakingToken;\r\n\r\n    uint public rewardRate = 100;\r\n\r\n    uint public withdrawFee = 10;\r\n    bool public withdrawFeeStatus = true;\r\n\r\n    uint public lastUpdateTime;\r\n    uint public rewardPerTokenStored;\r\n\r\n    mapping(address => uint) public userRewardPerTokenPaid;\r\n    mapping(address => uint) public rewards;\r\n\r\n    uint private _totalSupply;\r\n    mapping(address => uint) private _balances;\r\n\r\n    event RewardUpdated(address account, uint rewards, uint rewardPerTokenStored, uint lastUpdateTime);\r\n    event Stake(address account, uint amount, uint amountSoFar);\r\n    event Withdraw(address account, uint amount, uint amountRemaining);\r\n    event ClaimReward(address account, uint amount);\r\n\r\n\r\n    constructor(address _stakingToken, address _rewardsToken) {\r\n        stakingToken = IERC20(_stakingToken);\r\n        rewardsToken = IERC20(_rewardsToken);\r\n    }\r\n\r\n    function setRewardRate(uint _rewardRate) external onlyOwner {\r\n        rewardRate = _rewardRate;\r\n    }\r\n\r\n    function setWithdrawFee(uint _withdrawFee) external onlyOwner {\r\n        withdrawFee = _withdrawFee;\r\n    }\r\n\r\n    function setWithdrawFeeStatus(bool _withdrawFeeStatus) external onlyOwner {\r\n        withdrawFeeStatus = _withdrawFeeStatus;\r\n    }\r\n\r\n    function balanceOf(address _owner) public view returns (uint256 _balance) {\r\n        return _balances[_owner];\r\n    }\r\n\r\n    function rewardsOf(address _owner) public view returns (uint256 _balance) {\r\n        return rewards[_owner];\r\n    }\r\n\r\n    function rewardPerToken() public view returns (uint) {\r\n        if (_totalSupply == 0) {\r\n            return 0;\r\n        }\r\n\r\n        uint256 reward_value = 0;\r\n        reward_value = rewardPerTokenStored.add((((block.timestamp.sub(lastUpdateTime)).mul(rewardRate).mul(1e18)).div(_totalSupply)));\r\n\r\n        return reward_value;\r\n    }\r\n\r\n    function earned(address account) public view returns (uint) {\r\n        return ((_balances[account].mul(rewardPerToken().sub(userRewardPerTokenPaid[account]))).div(1e18)).add(rewards[account]);\r\n    }\r\n\r\n    modifier updateReward(address account) {\r\n        rewardPerTokenStored = rewardPerToken();\r\n        lastUpdateTime = block.timestamp;\r\n\r\n        rewards[account] = earned(account);\r\n        userRewardPerTokenPaid[account] = rewardPerTokenStored;\r\n\r\n        emit RewardUpdated(account, rewards[account], rewardPerTokenStored, lastUpdateTime);\r\n        _;\r\n    }\r\n\r\n    function stake(uint _amount) external updateReward(msg.sender) {\r\n        require(stakingToken.balanceOf(msg.sender) >= _amount, \"Insufficient amount\");\r\n\r\n        _totalSupply = _totalSupply.add(_amount);\r\n        _balances[msg.sender] = _balances[msg.sender].add(_amount);\r\n\r\n        stakingToken.transferFrom(msg.sender, address(this), _amount);\r\n\r\n        emit Stake(msg.sender, _amount, _balances[msg.sender]);\r\n    }\r\n\r\n    function withdraw(uint _amount) external updateReward(msg.sender) {\r\n        require(_balances[msg.sender] >= _amount, \"Over the limit\");\r\n\r\n        if (withdrawFeeStatus) {\r\n            _amount = _amount.mul(100 - withdrawFee).div(100);\r\n        }\r\n\r\n        bool sent = stakingToken.transfer(msg.sender, _amount);\r\n\r\n        require(sent, \"Stakingtoken transfer failed\");\r\n        _totalSupply = _totalSupply.sub(_amount);\r\n        _balances[msg.sender] = _balances[msg.sender].sub(_amount);\r\n\r\n        emit Withdraw(msg.sender, _amount, _balances[msg.sender]);\r\n    }\r\n\r\n    function claimReward() external updateReward(msg.sender) {\r\n        uint reward = rewards[msg.sender];\r\n        rewards[msg.sender] = 0;\r\n        rewardsToken.transfer(msg.sender, reward);\r\n\r\n        emit ClaimReward(msg.sender, reward);\r\n    }\r\n}\r\n",
  "sourcePath": "F:\\blockchain\\mt0token\\contracts\\Staking.sol",
  "compiler": {
    "name": "solc",
    "version": "0.8.0+commit.c7dfd78e.Emscripten.clang"
  },
  "schemaVersion": "3.4.3",
  "updatedAt": "2021-10-28T02:56:17.395Z",
  "networkType": "ethereum",
  "devdoc": {
    "kind": "dev",
    "methods": {
      "owner()": {
        "details": "Returns the address of the current owner."
      },
      "renounceOwnership()": {
        "details": "Leaves the contract without owner. It will not be possible to call `onlyOwner` functions anymore. Can only be called by the current owner. NOTE: Renouncing ownership will leave the contract without an owner, thereby removing any functionality that is only available to the owner."
      },
      "transferOwnership(address)": {
        "details": "Transfers ownership of the contract to a new account (`newOwner`). Can only be called by the current owner."
      }
    },
    "version": 1
  },
  "userdoc": {
    "kind": "user",
    "methods": {},
    "version": 1
  }
}